:100000000C9452000C946F000C946F000C946F00D1
:100010000C946F000C946F000C946F000C946F00A4
:100020000C946F000C946F000C946F000C946F0094
:100030000C946F000C946F000C946F000C946F0084
:100040000C946F000C946F000C946F000C946F0074
:100050000C946F00084AD73B3BCE016E84BCBFFDB9
:10006000C12F3D6C74319ABD56833DDA3D00C77F88
:1000700011BED9E4BB4C3E916BAAAABE0000008021
:100080003F0664EC1B3C04BC163E3BE5B93CC93C56
:1000900037C29E5A3D660498083EEA69AAAA3E0005
:1000A0000000803F11241FBECFE5D4E0DEBFCDBFEE
:1000B00010E0A0E6B0E0E2E2FEE002C005900D92A2
:1000C000A638B107D9F710E0A6E8B0E001C01D924C
:1000D000AE3AB107E1F70E944D020C940F070C9461
:1000E000000080E487B987E886B9089597B18770E2
:1000F000987F892B87B9369A3699FECF24B135B1CE
:10010000C90108958FB5826A8FBD8EB58B618EBD92
:1001100087E893E197BD86BD81B3806381BB089575
:100120009B01AC018AB188618AB980B5866880BDBF
:1001300064E0220F331F441F551F6A95D1F760E01A
:1001400074E284EF90E00E94D906C901DA012150DF
:1001500029B90197A109B109892F9A2FAB2FBB2784
:1001600080BD08955F9BFECF8CB108955D9BFECF4F
:100170008CB9089520E004C05D9BFECFECB92F5FE1
:10018000FC01E20FF11DE081EE23B1F70895EF923B
:10019000FF920F931F937B018C0120E030E040E041
:1001A00050E00E947E04882324F417FB109517F971
:1001B0001095C801B70120E030E048EC52E40E94FD
:1001C000F9050E94EA049B015D9BFECFC90168EE20
:1001D00073E00E94C606CB016AE070E00E94C6068A
:1001E000805D8CB95D9BFECFC90164E670E00E9422
:1001F000C606CB016AE070E00E94C606805D8CB93D
:100200005D9BFECF8EE28CB95D9BFECFC9016AE09B
:1002100070E00E94C606CB016AE070E00E94C6064C
:10022000805D8CB95D9BFECFC9016AE070E00E94E1
:10023000C606805D8CB95D9BFECF8AE08CB91F91AC
:100240000F91FF90EF900895EF92FF920F931F93FD
:100250007B018C0120E030E040E050E00E947E0411
:10026000882324F417FB109517F91095C801B701DE
:1002700020E030E048EC52E40E94F9050E94EA04D4
:100280009B015D9BFECFC90160E177E20E94C6063B
:10029000CB016AE070E00E94C606805D8CB95D9B70
:1002A000FECFC90168EE73E00E94C606CB016AE08A
:1002B00070E00E94C606805D8CB95D9BFECFC901CF
:1002C00064E670E00E94C606CB016AE070E00E941E
:1002D000C606805D8CB95D9BFECF8EE28CB95D9BBE
:1002E000FECFC9016AE070E00E94C606CB016AE059
:1002F00070E00E94C606805D8CB95D9BFECFC9018F
:100300006AE070E00E94C606805D8CB95D9BFECFFE
:100310008AE08CB91F910F91FF90EF900895AF92F2
:10032000BF92CF92DF92EF92FF920F931F937B01C8
:100330008C0159016A0180E690E00E94BA00E894BD
:1003400017F9C801B7010E94C70084E690E00E9437
:10035000BA00E894D7F8C601B5010E94C70088E644
:1003600090E00E94BA0060918600709187008091B1
:100370008800909189009F770E94C7008CE690E0EA
:100380000E94BA0060918E0070918F008091900061
:10039000909191009F770E94C70080E790E00E94B3
:1003A000BA0060919E0070919F008091A000909192
:1003B000A1009F770E94C70088EE93E020E931E01A
:1003C000F9013197F1F70197D9F71F910F91FF903C
:1003D000EF90DF90CF90BF90AF900895AF92BF9213
:1003E000CF92DF92EF92FF920F931F937B018C01CC
:1003F00059016A0180E690E00E94BA00C801B70185
:100400000E94C70084E690E00E94BA00C601B501D0
:100410000E94C7001F910F91FF90EF90DF90CF9047
:10042000BF90AF90089583E790E00E94BA0060917A
:1004300092007091930080919400909195009F7725
:100440000E94C70089E790E00E94BA006091960080
:100450007091970080919800909199009F770E94E9
:10046000C7008FE790E00E94BA0060919A007091F7
:100470009B0080919C0090919D009F770E94C700F7
:1004800008956091AA007091AB008091AC009091AA
:10049000AD009F770E94240108952F923F924F92C2
:1004A0005F926F927F928F929F92AF92BF92CF9204
:1004B000DF92EF92FF920F931F93DF93CF9300D0C1
:1004C00000D0CDB7DEB760E875E280E090E00E9432
:1004D000900080E487B987E886B90E94820080E0B6
:1004E0000E947600BC0122E081309207C0F480E0D7
:1004F00090E00E941B052CE039EC49E45BEB0E9484
:10050000F90523EB3CE049EC5FE30E94F2039B0119
:10051000AC01505829833A834B835C8319C08150C6
:1005200092408F5F9140A0F480E090E00E941B0514
:100530002CE039EC49E45BE30E94F90523EB3CE055
:1005400049EC5FE30E94F10369837A838B839C8388
:1005500069817A818B819C810E945F069B01AC013D
:1005600060E070E080E290E40E9482047B018C01F4
:1005700020E030E040EA5FE30E94F2039B01AC011F
:1005800060E070E080E290E40E9482041B012C0194
:10059000C801B70120E030E040EA5FE30E94F103C8
:1005A0009B01AC0160E070E080E290E40E94820474
:1005B0003B014C01C201B1010E94560423EA3CE414
:1005C00045E652E40E94F9055B016C016093A200CC
:1005D0007093A3008093A4009093A500C401B3017D
:1005E0000E94560423EA3CE445E652E40E94F905E1
:1005F0007B018C0160938A0070938B0080938C0048
:1006000090938D00C601B501A60195010E94F203E9
:1006100020E030E84CEA53E40E94F2030E94EF0429
:100620007BBD6ABDC801B701A80197010E94F20312
:1006300020E030E84CEA53E40E94F2030E94EF0409
:1006400079BD68BD60E070E080E290E4A2019101B4
:100650000E948204609386007093870080938800D4
:100660009093890060E070E080E290E4A40193013F
:100670000E94820460938E0070938F00809390009C
:100680009093910020E030E040EA5FE30E94F203A3
:1006900060939E0070939F008093A0009093A100B0
:1006A000E894D7F8E89417F9C601B501A8019701B5
:1006B0000E948F0160918E0070918F008091900058
:1006C0009091910020E030E040E251E40E94F90571
:1006D0003B014C01609186007091870080918800F9
:1006E0009091890020E030E040E251E40E94F90559
:1006F0007B018C0160919E0070919F008091A00011
:100700009091A10020E030E040E251E40E94F90520
:100710005B016C0160939A0070939B0080939C0036
:1007200090939D00C801B701A40193010E94F103B9
:100730007B018C0120E030E040E05FE30E94F9059E
:100740009B01AC01C601B5010E94F2033B014C01C3
:10075000609392007093930080939400909395001F
:10076000C801B70120E030E040E05FEB0E94F905EE
:100770009B01AC01C601B5010E94F2037B018C0113
:1007800060939600709397008093980090939900DF
:10079000C401B30120E030E048EC52E40E94F905C6
:1007A000A60195010E9482046093AA007093AB0099
:1007B0008093AC009093AD00C801B70120E030E019
:1007C00048EC52E40E94F905A60195010E948204BA
:1007D0006093A6007093A7008093A8009093A9004F
:1007E0007ECE5058BB27AA270ED0C2C1B3D130F05D
:1007F000B8D120F031F49F3F11F41EF483C10EF400
:10080000E095E7FB79C1E92FC4D180F3BA176207FD
:1008100073078407950718F071F49EF5DCC10EF498
:10082000E0950B2EBA2FA02D0B01B90190010C0100
:10083000CA01A0011124FF27591B99F0593F50F418
:10084000503E68F11A16F040A22F232F342F442770
:10085000585FF3CF469537952795A795F040539568
:10086000C9F77EF41F16BA0B620B730B840BBAF038
:100870009150A1F0FF0FBB1F661F771F881FC2F7A3
:100880000EC0BA0F621F731F841F48F487957795B7
:100890006795B795F7959E3F08F0B3CF9395880F6E
:1008A00008F09927EE0F979587950895DF93DD2738
:1008B000B92FBF7740E85FE31616170648075B07B6
:1008C00010F4D92F8FD19F938F937F936F93F4D18F
:1008D000E4E5F0E01AD14CD12F913F914F915F9117
:1008E00094D1DD2349F09058A2EA2AED3FE049EC8B
:1008F0005FE3D0785D2787DFDF913AC1D9D008F474
:1009000081E008950CD034C12CD140F023D130F0D7
:1009100021F45F3F19F0F0C051115EC1F3C039D12D
:1009200098F39923C9F35523B1F3951B550BBB27B6
:10093000AA2762177307840738F09F5F5F4F220F63
:10094000331F441FAA1FA9F333D00E2E3AF0E0E85C
:1009500030D091505040E695001CCAF729D0FE2FA8
:1009600027D0660F771F881FBB1F2617370748073A
:10097000AB07B0E809F0BB0B802DBF01FF279358F0
:100980005F4F2AF09E3F510568F0B6C025C15F3F1A
:10099000ECF3983EDCF3869577956795B795F795D8
:1009A0009F5FC9F7880F911D9695879597F90895D0
:1009B000E1E0660F771F881FBB1F6217730784076C
:1009C000BA0720F0621B730B840BBA0BEE1F88F77B
:1009D000E095089504D06894B111FEC00895E1D067
:1009E00088F09F5790F0B92F9927B751A0F0D1F018
:1009F000660F771F881F991F1AF0BA95C9F712C0A2
:100A0000B13081F0E8D0B1E00895E5C0672F782FCC
:100A10008827B85F39F0B93FCCF38695779567950D
:100A2000B395D9F73EF490958095709561957F4F79
:100A30008F4F9F4F0895E89409C097FB3EF490951F
:100A40008095709561957F4F8F4F9F4F9923A9F0A7
:100A5000F92F96E9BB279395F69587957795679536
:100A6000B795F111F8CFFAF4BB0F11F460FF1BC07A
:100A70006F5F7F4F8F4F9F4F16C0882311F096E90D
:100A800011C0772321F09EE8872F762F05C06623BB
:100A900071F096E8862F70E060E02AF09A95660F74
:100AA000771F881FDAF7880F9695879597F908952D
:100AB000990F0008550FAA0BE0E8FEEF161617066F
:100AC000E807F907C0F012161306E407F50798F0D7
:100AD000621B730B840B950B39F40A2661F0232BF0
:100AE000242B252B21F408950A2609F4A140A6956C
:100AF0008FEF811D811D089597F99F6780E870E051
:100B000060E008959FEF80EC0895DF93CF931F93EB
:100B10000F93FF92EF92DF927B018C01689405C0E6
:100B2000DA2EEF0172D0FE01E894A591259135915E
:100B300045915591AEF3EF0166DEFE019701A801E4
:100B4000DA9479F7DF90EF90FF900F911F91CF919A
:100B5000DF91089500240A94161617061806090650
:100B6000089500240A941216130614060506089523
:100B7000092E0394000C11F4882352F0BB0F40F4AB
:100B8000BF2B11F460FF04C06F5F7F4F8F4F9F4FEB
:100B9000089557FD9058440F551F59F05F3F71F06D
:100BA0004795880F97FB991F61F09F3F79F08795D4
:100BB0000895121613061406551FF2CF4695F1DF5D
:100BC00008C0161617061806991FF1CF86957105ED
:100BD000610508940895E894BB2766277727CB0121
:100BE00097F908959B01AC0160E070E080E89FE315
:100BF00089CE0BD0BDCFAEDF28F0B3DF18F0952340
:100C000009F07ACF7FCF1124E7CFC3DFA0F3959F00
:100C1000D1F3950F50E0551F629FF001729FBB27E3
:100C2000F00DB11D639FAA27F00DB11DAA1F649F8F
:100C30006627B00DA11D661F829F2227B00DA11D42
:100C4000621F739FB00DA11D621F839FA00D611DC8
:100C5000221F749F3327A00D611D231F849F600DE9
:100C6000211D822F762F6A2F11249F5750408AF022
:100C7000E1F088234AF0EE0FFF1FBB1F661F771FAE
:100C8000881F91505040A9F79E3F510570F034CF16
:100C9000A3CF5F3FECF3983EDCF38695779567959D
:100CA000B795F795E7959F5FC1F7FE2B880F911DCC
:100CB0009695879597F908959B01AC019ACFDF939C
:100CC000D92F2FD0E695D7952AED3FE049E45FE391
:100CD000B33A6207730784079507D7952AF0A2EA0B
:100CE00049EC906890DD44DFE1E8F0E008D0DD0FEA
:100CF0000BF078DFDD0F0BF49058DF9108959F9390
:100D00008F937F936F93FF93EF939B01AC0171DF00
:100D1000EF91FF91FADE2F913F914F915F9169CF53
:100D2000F1CE3FDFE8F3E894E0E0BB279F57F0F017
:100D30002AED3FE049EC06C0EE0FBB0F661F771FA0
:100D4000881F28F0B23A62077307840728F0B25A66
:100D5000620B730B840BE3959A9572F7803830F42D
:100D60009A95BB0F661F771F881FD2F7904802C065
:100D70009F3F31F0915020F4879577956795B7950F
:100D8000880F911D9695879597F9089597FB092EE1
:100D900007260AD077FD04D02ED006D000201AF402
:100DA000709561957F4F0895F6F7909581959F4FC7
:100DB0000895A1E21A2EAA1BBB1BFD010DC0AA1F9C
:100DC000BB1FEE1FFF1FA217B307E407F50720F0B4
:100DD000A21BB30BE40BF50B661F771F881F991F2F
:100DE0001A9469F760957095809590959B01AC0178
:100DF000BD01CF010895AA1BBB1B51E107C0AA1F6B
:100E0000BB1FA617B70710F0A61BB70B881F991FAB
:100E10005A95A9F780959095BC01CD010895F89455
:020E2000FFCF02
:100E220074310A0074320A0072310A0072320A0006
:100E3200720A0076206C3A20007620723A20007600
:060E420020203A20000010
:00000001FF
